{
  "contractName": "Blockbeats",
  "abi": [
    {
      "inputs": [],
      "stateMutability": "nonpayable",
      "type": "constructor"
    },
    {
      "anonymous": false,
      "inputs": [
        {
          "indexed": true,
          "internalType": "address",
          "name": "owner",
          "type": "address"
        },
        {
          "indexed": true,
          "internalType": "address",
          "name": "approved",
          "type": "address"
        },
        {
          "indexed": true,
          "internalType": "uint256",
          "name": "tokenId",
          "type": "uint256"
        }
      ],
      "name": "Approval",
      "type": "event"
    },
    {
      "anonymous": false,
      "inputs": [
        {
          "indexed": true,
          "internalType": "address",
          "name": "owner",
          "type": "address"
        },
        {
          "indexed": true,
          "internalType": "address",
          "name": "operator",
          "type": "address"
        },
        {
          "indexed": false,
          "internalType": "bool",
          "name": "approved",
          "type": "bool"
        }
      ],
      "name": "ApprovalForAll",
      "type": "event"
    },
    {
      "anonymous": false,
      "inputs": [
        {
          "indexed": true,
          "internalType": "address",
          "name": "from",
          "type": "address"
        },
        {
          "indexed": true,
          "internalType": "address",
          "name": "to",
          "type": "address"
        },
        {
          "indexed": true,
          "internalType": "uint256",
          "name": "tokenId",
          "type": "uint256"
        }
      ],
      "name": "Transfer",
      "type": "event"
    },
    {
      "inputs": [
        {
          "internalType": "address",
          "name": "to",
          "type": "address"
        },
        {
          "internalType": "uint256",
          "name": "tokenId",
          "type": "uint256"
        }
      ],
      "name": "approve",
      "outputs": [],
      "stateMutability": "nonpayable",
      "type": "function"
    },
    {
      "inputs": [
        {
          "internalType": "address",
          "name": "owner",
          "type": "address"
        }
      ],
      "name": "balanceOf",
      "outputs": [
        {
          "internalType": "uint256",
          "name": "",
          "type": "uint256"
        }
      ],
      "stateMutability": "view",
      "type": "function",
      "constant": true
    },
    {
      "inputs": [
        {
          "internalType": "uint256",
          "name": "tokenId",
          "type": "uint256"
        }
      ],
      "name": "getApproved",
      "outputs": [
        {
          "internalType": "address",
          "name": "",
          "type": "address"
        }
      ],
      "stateMutability": "view",
      "type": "function",
      "constant": true
    },
    {
      "inputs": [
        {
          "internalType": "address",
          "name": "owner",
          "type": "address"
        },
        {
          "internalType": "address",
          "name": "operator",
          "type": "address"
        }
      ],
      "name": "isApprovedForAll",
      "outputs": [
        {
          "internalType": "bool",
          "name": "",
          "type": "bool"
        }
      ],
      "stateMutability": "view",
      "type": "function",
      "constant": true
    },
    {
      "inputs": [
        {
          "internalType": "uint256",
          "name": "",
          "type": "uint256"
        }
      ],
      "name": "listings",
      "outputs": [
        {
          "internalType": "uint256",
          "name": "id",
          "type": "uint256"
        },
        {
          "internalType": "string",
          "name": "URI",
          "type": "string"
        },
        {
          "internalType": "uint64",
          "name": "price",
          "type": "uint64"
        },
        {
          "internalType": "string",
          "name": "title",
          "type": "string"
        },
        {
          "internalType": "address payable",
          "name": "creator",
          "type": "address"
        }
      ],
      "stateMutability": "view",
      "type": "function",
      "constant": true
    },
    {
      "inputs": [],
      "name": "name",
      "outputs": [
        {
          "internalType": "string",
          "name": "",
          "type": "string"
        }
      ],
      "stateMutability": "view",
      "type": "function",
      "constant": true
    },
    {
      "inputs": [
        {
          "internalType": "uint256",
          "name": "tokenId",
          "type": "uint256"
        }
      ],
      "name": "ownerOf",
      "outputs": [
        {
          "internalType": "address",
          "name": "",
          "type": "address"
        }
      ],
      "stateMutability": "view",
      "type": "function",
      "constant": true
    },
    {
      "inputs": [
        {
          "internalType": "address",
          "name": "from",
          "type": "address"
        },
        {
          "internalType": "address",
          "name": "to",
          "type": "address"
        },
        {
          "internalType": "uint256",
          "name": "tokenId",
          "type": "uint256"
        }
      ],
      "name": "safeTransferFrom",
      "outputs": [],
      "stateMutability": "nonpayable",
      "type": "function"
    },
    {
      "inputs": [
        {
          "internalType": "address",
          "name": "from",
          "type": "address"
        },
        {
          "internalType": "address",
          "name": "to",
          "type": "address"
        },
        {
          "internalType": "uint256",
          "name": "tokenId",
          "type": "uint256"
        },
        {
          "internalType": "bytes",
          "name": "_data",
          "type": "bytes"
        }
      ],
      "name": "safeTransferFrom",
      "outputs": [],
      "stateMutability": "nonpayable",
      "type": "function"
    },
    {
      "inputs": [
        {
          "internalType": "address",
          "name": "operator",
          "type": "address"
        },
        {
          "internalType": "bool",
          "name": "approved",
          "type": "bool"
        }
      ],
      "name": "setApprovalForAll",
      "outputs": [],
      "stateMutability": "nonpayable",
      "type": "function"
    },
    {
      "inputs": [
        {
          "internalType": "bytes4",
          "name": "interfaceId",
          "type": "bytes4"
        }
      ],
      "name": "supportsInterface",
      "outputs": [
        {
          "internalType": "bool",
          "name": "",
          "type": "bool"
        }
      ],
      "stateMutability": "view",
      "type": "function",
      "constant": true
    },
    {
      "inputs": [],
      "name": "symbol",
      "outputs": [
        {
          "internalType": "string",
          "name": "",
          "type": "string"
        }
      ],
      "stateMutability": "view",
      "type": "function",
      "constant": true
    },
    {
      "inputs": [
        {
          "internalType": "address",
          "name": "from",
          "type": "address"
        },
        {
          "internalType": "address",
          "name": "to",
          "type": "address"
        },
        {
          "internalType": "uint256",
          "name": "tokenId",
          "type": "uint256"
        }
      ],
      "name": "transferFrom",
      "outputs": [],
      "stateMutability": "nonpayable",
      "type": "function"
    },
    {
      "inputs": [
        {
          "internalType": "string",
          "name": "title",
          "type": "string"
        },
        {
          "internalType": "uint64",
          "name": "price",
          "type": "uint64"
        },
        {
          "internalType": "string",
          "name": "URI",
          "type": "string"
        }
      ],
      "name": "createListing",
      "outputs": [],
      "stateMutability": "nonpayable",
      "type": "function"
    },
    {
      "inputs": [],
      "name": "viewListings",
      "outputs": [
        {
          "components": [
            {
              "internalType": "uint256",
              "name": "id",
              "type": "uint256"
            },
            {
              "internalType": "string",
              "name": "URI",
              "type": "string"
            },
            {
              "internalType": "uint64",
              "name": "price",
              "type": "uint64"
            },
            {
              "internalType": "string",
              "name": "title",
              "type": "string"
            },
            {
              "internalType": "address payable",
              "name": "creator",
              "type": "address"
            }
          ],
          "internalType": "struct Blockbeats.Listing[]",
          "name": "",
          "type": "tuple[]"
        }
      ],
      "stateMutability": "view",
      "type": "function",
      "constant": true
    },
    {
      "inputs": [
        {
          "internalType": "uint256",
          "name": "id",
          "type": "uint256"
        }
      ],
      "name": "buyListing",
      "outputs": [],
      "stateMutability": "payable",
      "type": "function",
      "payable": true
    },
    {
      "inputs": [
        {
          "internalType": "uint256",
          "name": "tokenId",
          "type": "uint256"
        }
      ],
      "name": "tokenURI",
      "outputs": [
        {
          "internalType": "string",
          "name": "",
          "type": "string"
        }
      ],
      "stateMutability": "view",
      "type": "function",
      "constant": true
    }
  ],
  "bytecode": "0x608060405260006006553480156200001657600080fd5b506040518060400160405280600a81526020017f42424c6963656e736573000000000000000000000000000000000000000000008152506040518060400160405280600481526020017f42424c430000000000000000000000000000000000000000000000000000000081525081600090805190602001906200009b929190620000bd565b508060019080519060200190620000b4929190620000bd565b505050620001d2565b828054620000cb906200016d565b90600052602060002090601f016020900481019282620000ef57600085556200013b565b82601f106200010a57805160ff19168380011785556200013b565b828001600101855582156200013b579182015b828111156200013a5782518255916020019190600101906200011d565b5b5090506200014a91906200014e565b5090565b5b80821115620001695760008160009055506001016200014f565b5090565b600060028204905060018216806200018657607f821691505b602082108114156200019d576200019c620001a3565b5b50919050565b7f4e487b7100000000000000000000000000000000000000000000000000000000600052602260045260246000fd5b6133b980620001e26000396000f3fe6080604052600436106100fe5760003560e01c806370a0823111610095578063b496c6c811610064578063b496c6c814610336578063b88d4fde14610361578063c87b56dd1461038a578063de74e57b146103c7578063e985e9c514610408576100fe565b806370a082311461027c57806395d89b41146102b9578063a22cb465146102e4578063abd685f41461030d576100fe565b806323b872dd116100d157806323b872dd146101d157806342842e0e146101fa5780634884f459146102235780636352211e1461023f576100fe565b806301ffc9a71461010357806306fdde0314610140578063081812fc1461016b578063095ea7b3146101a8575b600080fd5b34801561010f57600080fd5b5061012a6004803603810190610125919061222f565b610445565b6040516101379190612c90565b60405180910390f35b34801561014c57600080fd5b50610155610527565b6040516101629190612cab565b60405180910390f35b34801561017757600080fd5b50610192600480360381019061018d9190612300565b6105b9565b60405161019f9190612c07565b60405180910390f35b3480156101b457600080fd5b506101cf60048036038101906101ca91906121f3565b61063e565b005b3480156101dd57600080fd5b506101f860048036038101906101f391906120ed565b610756565b005b34801561020657600080fd5b50610221600480360381019061021c91906120ed565b6107b6565b005b61023d60048036038101906102389190612300565b6107d6565b005b34801561024b57600080fd5b5061026660048036038101906102619190612300565b610a5f565b6040516102739190612c07565b60405180910390f35b34801561028857600080fd5b506102a3600480360381019061029e9190612088565b610b11565b6040516102b09190612eed565b60405180910390f35b3480156102c557600080fd5b506102ce610bc9565b6040516102db9190612cab565b60405180910390f35b3480156102f057600080fd5b5061030b600480360381019061030691906121b7565b610c5b565b005b34801561031957600080fd5b50610334600480360381019061032f9190612281565b610ddc565b005b34801561034257600080fd5b5061034b610f1a565b6040516103589190612c6e565b60405180910390f35b34801561036d57600080fd5b506103886004803603810190610383919061213c565b61112f565b005b34801561039657600080fd5b506103b160048036038101906103ac9190612300565b611191565b6040516103be9190612cab565b60405180910390f35b3480156103d357600080fd5b506103ee60048036038101906103e99190612300565b611328565b6040516103ff959493929190612f08565b60405180910390f35b34801561041457600080fd5b5061042f600480360381019061042a91906120b1565b6114b2565b60405161043c9190612c90565b60405180910390f35b60007f80ac58cd000000000000000000000000000000000000000000000000000000007bffffffffffffffffffffffffffffffffffffffffffffffffffffffff1916827bffffffffffffffffffffffffffffffffffffffffffffffffffffffff1916148061051057507f5b5e139f000000000000000000000000000000000000000000000000000000007bffffffffffffffffffffffffffffffffffffffffffffffffffffffff1916827bffffffffffffffffffffffffffffffffffffffffffffffffffffffff1916145b80610520575061051f82611546565b5b9050919050565b606060008054610536906131ed565b80601f0160208091040260200160405190810160405280929190818152602001828054610562906131ed565b80156105af5780601f10610584576101008083540402835291602001916105af565b820191906000526020600020905b81548152906001019060200180831161059257829003601f168201915b5050505050905090565b60006105c4826115b0565b610603576040517f08c379a00000000000000000000000000000000000000000000000000000000081526004016105fa90612e2d565b60405180910390fd5b6004600083815260200190815260200160002060009054906101000a900473ffffffffffffffffffffffffffffffffffffffff169050919050565b600061064982610a5f565b90508073ffffffffffffffffffffffffffffffffffffffff168373ffffffffffffffffffffffffffffffffffffffff1614156106ba576040517f08c379a00000000000000000000000000000000000000000000000000000000081526004016106b190612ead565b60405180910390fd5b8073ffffffffffffffffffffffffffffffffffffffff166106d961161c565b73ffffffffffffffffffffffffffffffffffffffff16148061070857506107078161070261161c565b6114b2565b5b610747576040517f08c379a000000000000000000000000000000000000000000000000000000000815260040161073e90612d8d565b60405180910390fd5b6107518383611624565b505050565b61076761076161161c565b826116dd565b6107a6576040517f08c379a000000000000000000000000000000000000000000000000000000000815260040161079d90612ecd565b60405180910390fd5b6107b18383836117bb565b505050565b6107d18383836040518060200160405280600081525061112f565b505050565b806008805490501161081d576040517f08c379a000000000000000000000000000000000000000000000000000000000815260040161081490612d0d565b60405180910390fd5b600060088281548110610859577f4e487b7100000000000000000000000000000000000000000000000000000000600052603260045260246000fd5b906000526020600020906005020160020160009054906101000a900467ffffffffffffffff1667ffffffffffffffff1690508034146108cd576040517f08c379a00000000000000000000000000000000000000000000000000000000081526004016108c490612ded565b60405180910390fd5b60088281548110610907577f4e487b7100000000000000000000000000000000000000000000000000000000600052603260045260246000fd5b906000526020600020906005020160040160009054906101000a900473ffffffffffffffffffffffffffffffffffffffff1673ffffffffffffffffffffffffffffffffffffffff166108fc349081150290604051600060405180830381858888f1935050505015801561097e573d6000803e3d6000fd5b50610a5b600883815481106109bc577f4e487b7100000000000000000000000000000000000000000000000000000000600052603260045260246000fd5b906000526020600020906005020160010180546109d8906131ed565b80601f0160208091040260200160405190810160405280929190818152602001828054610a04906131ed565b8015610a515780601f10610a2657610100808354040283529160200191610a51565b820191906000526020600020905b815481529060010190602001808311610a3457829003601f168201915b5050505050611a17565b5050565b6000806002600084815260200190815260200160002060009054906101000a900473ffffffffffffffffffffffffffffffffffffffff169050600073ffffffffffffffffffffffffffffffffffffffff168173ffffffffffffffffffffffffffffffffffffffff161415610b08576040517f08c379a0000000000000000000000000000000000000000000000000000000008152600401610aff90612dcd565b60405180910390fd5b80915050919050565b60008073ffffffffffffffffffffffffffffffffffffffff168273ffffffffffffffffffffffffffffffffffffffff161415610b82576040517f08c379a0000000000000000000000000000000000000000000000000000000008152600401610b7990612dad565b60405180910390fd5b600360008373ffffffffffffffffffffffffffffffffffffffff1673ffffffffffffffffffffffffffffffffffffffff168152602001908152602001600020549050919050565b606060018054610bd8906131ed565b80601f0160208091040260200160405190810160405280929190818152602001828054610c04906131ed565b8015610c515780601f10610c2657610100808354040283529160200191610c51565b820191906000526020600020905b815481529060010190602001808311610c3457829003601f168201915b5050505050905090565b610c6361161c565b73ffffffffffffffffffffffffffffffffffffffff168273ffffffffffffffffffffffffffffffffffffffff161415610cd1576040517f08c379a0000000000000000000000000000000000000000000000000000000008152600401610cc890612d4d565b60405180910390fd5b8060056000610cde61161c565b73ffffffffffffffffffffffffffffffffffffffff1673ffffffffffffffffffffffffffffffffffffffff16815260200190815260200160002060008473ffffffffffffffffffffffffffffffffffffffff1673ffffffffffffffffffffffffffffffffffffffff16815260200190815260200160002060006101000a81548160ff0219169083151502179055508173ffffffffffffffffffffffffffffffffffffffff16610d8b61161c565b73ffffffffffffffffffffffffffffffffffffffff167f17307eab39ab6107e8899845ad3d59bd9653f200f220920489ca2b5937696c3183604051610dd09190612c90565b60405180910390a35050565b60006040518060a0016040528060088054905081526020018381526020018467ffffffffffffffff1681526020018581526020013373ffffffffffffffffffffffffffffffffffffffff1681525090506008819080600181540180825580915050600190039060005260206000209060050201600090919091909150600082015181600001556020820151816001019080519060200190610e7e929190611e97565b5060408201518160020160006101000a81548167ffffffffffffffff021916908367ffffffffffffffff1602179055506060820151816003019080519060200190610eca929190611e97565b5060808201518160040160006101000a81548173ffffffffffffffffffffffffffffffffffffffff021916908373ffffffffffffffffffffffffffffffffffffffff160217905550505050505050565b60606008805480602002602001604051908101604052809291908181526020016000905b8282101561112657838290600052602060002090600502016040518060a001604052908160008201548152602001600182018054610f7b906131ed565b80601f0160208091040260200160405190810160405280929190818152602001828054610fa7906131ed565b8015610ff45780601f10610fc957610100808354040283529160200191610ff4565b820191906000526020600020905b815481529060010190602001808311610fd757829003601f168201915b505050505081526020016002820160009054906101000a900467ffffffffffffffff1667ffffffffffffffff1667ffffffffffffffff16815260200160038201805461103f906131ed565b80601f016020809104026020016040519081016040528092919081815260200182805461106b906131ed565b80156110b85780601f1061108d576101008083540402835291602001916110b8565b820191906000526020600020905b81548152906001019060200180831161109b57829003601f168201915b505050505081526020016004820160009054906101000a900473ffffffffffffffffffffffffffffffffffffffff1673ffffffffffffffffffffffffffffffffffffffff1673ffffffffffffffffffffffffffffffffffffffff168152505081526020019060010190610f3e565b50505050905090565b61114061113a61161c565b836116dd565b61117f576040517f08c379a000000000000000000000000000000000000000000000000000000000815260040161117690612ecd565b60405180910390fd5b61118b84848484611a4a565b50505050565b606061119c826115b0565b6111db576040517f08c379a00000000000000000000000000000000000000000000000000000000081526004016111d290612e8d565b60405180910390fd5b60006007600084815260200190815260200160002080546111fb906131ed565b80601f0160208091040260200160405190810160405280929190818152602001828054611227906131ed565b80156112745780601f1061124957610100808354040283529160200191611274565b820191906000526020600020905b81548152906001019060200180831161125757829003601f168201915b5050505050905060006040518060400160405280600a81526020017f756e7365742d626173650000000000000000000000000000000000000000000081525090506000815114156112c9578192505050611323565b6000825111156112fc57816040516020016112e49190612bc8565b60405160208183030381529060405292505050611323565b808460405160200161130f929190612bdf565b604051602081830303815290604052925050505b919050565b6008818154811061133857600080fd5b9060005260206000209060050201600091509050806000015490806001018054611361906131ed565b80601f016020809104026020016040519081016040528092919081815260200182805461138d906131ed565b80156113da5780601f106113af576101008083540402835291602001916113da565b820191906000526020600020905b8154815290600101906020018083116113bd57829003601f168201915b5050505050908060020160009054906101000a900467ffffffffffffffff1690806003018054611409906131ed565b80601f0160208091040260200160405190810160405280929190818152602001828054611435906131ed565b80156114825780601f1061145757610100808354040283529160200191611482565b820191906000526020600020905b81548152906001019060200180831161146557829003601f168201915b5050505050908060040160009054906101000a900473ffffffffffffffffffffffffffffffffffffffff16905085565b6000600560008473ffffffffffffffffffffffffffffffffffffffff1673ffffffffffffffffffffffffffffffffffffffff16815260200190815260200160002060008373ffffffffffffffffffffffffffffffffffffffff1673ffffffffffffffffffffffffffffffffffffffff16815260200190815260200160002060009054906101000a900460ff16905092915050565b60007f01ffc9a7000000000000000000000000000000000000000000000000000000007bffffffffffffffffffffffffffffffffffffffffffffffffffffffff1916827bffffffffffffffffffffffffffffffffffffffffffffffffffffffff1916149050919050565b60008073ffffffffffffffffffffffffffffffffffffffff166002600084815260200190815260200160002060009054906101000a900473ffffffffffffffffffffffffffffffffffffffff1673ffffffffffffffffffffffffffffffffffffffff1614159050919050565b600033905090565b816004600083815260200190815260200160002060006101000a81548173ffffffffffffffffffffffffffffffffffffffff021916908373ffffffffffffffffffffffffffffffffffffffff160217905550808273ffffffffffffffffffffffffffffffffffffffff1661169783610a5f565b73ffffffffffffffffffffffffffffffffffffffff167f8c5be1e5ebec7d5bd14f71427d1e84f3dd0314c0f7b2291e5b200ac8c7c3b92560405160405180910390a45050565b60006116e8826115b0565b611727576040517f08c379a000000000000000000000000000000000000000000000000000000000815260040161171e90612d6d565b60405180910390fd5b600061173283610a5f565b90508073ffffffffffffffffffffffffffffffffffffffff168473ffffffffffffffffffffffffffffffffffffffff1614806117a157508373ffffffffffffffffffffffffffffffffffffffff16611789846105b9565b73ffffffffffffffffffffffffffffffffffffffff16145b806117b257506117b181856114b2565b5b91505092915050565b8273ffffffffffffffffffffffffffffffffffffffff166117db82610a5f565b73ffffffffffffffffffffffffffffffffffffffff1614611831576040517f08c379a000000000000000000000000000000000000000000000000000000000815260040161182890612e6d565b60405180910390fd5b600073ffffffffffffffffffffffffffffffffffffffff168273ffffffffffffffffffffffffffffffffffffffff1614156118a1576040517f08c379a000000000000000000000000000000000000000000000000000000000815260040161189890612d2d565b60405180910390fd5b6118ac838383611aa6565b6118b7600082611624565b6001600360008573ffffffffffffffffffffffffffffffffffffffff1673ffffffffffffffffffffffffffffffffffffffff168152602001908152602001600020600082825461190791906130dd565b925050819055506001600360008473ffffffffffffffffffffffffffffffffffffffff1673ffffffffffffffffffffffffffffffffffffffff168152602001908152602001600020600082825461195e9190613087565b92505081905550816002600083815260200190815260200160002060006101000a81548173ffffffffffffffffffffffffffffffffffffffff021916908373ffffffffffffffffffffffffffffffffffffffff160217905550808273ffffffffffffffffffffffffffffffffffffffff168473ffffffffffffffffffffffffffffffffffffffff167fddf252ad1be2c89b69c2b068fc378daa952ba7f163c4a11628f55a4df523b3ef60405160405180910390a4505050565b611a2333600654611aab565b611a2f60065482611c79565b60066000815480929190611a429061321f565b919050555050565b611a558484846117bb565b611a6184848484611ced565b611aa0576040517f08c379a0000000000000000000000000000000000000000000000000000000008152600401611a9790612ccd565b60405180910390fd5b50505050565b505050565b600073ffffffffffffffffffffffffffffffffffffffff168273ffffffffffffffffffffffffffffffffffffffff161415611b1b576040517f08c379a0000000000000000000000000000000000000000000000000000000008152600401611b1290612e0d565b60405180910390fd5b611b24816115b0565b15611b64576040517f08c379a0000000000000000000000000000000000000000000000000000000008152600401611b5b90612ced565b60405180910390fd5b611b7060008383611aa6565b6001600360008473ffffffffffffffffffffffffffffffffffffffff1673ffffffffffffffffffffffffffffffffffffffff1681526020019081526020016000206000828254611bc09190613087565b92505081905550816002600083815260200190815260200160002060006101000a81548173ffffffffffffffffffffffffffffffffffffffff021916908373ffffffffffffffffffffffffffffffffffffffff160217905550808273ffffffffffffffffffffffffffffffffffffffff16600073ffffffffffffffffffffffffffffffffffffffff167fddf252ad1be2c89b69c2b068fc378daa952ba7f163c4a11628f55a4df523b3ef60405160405180910390a45050565b611c82826115b0565b611cc1576040517f08c379a0000000000000000000000000000000000000000000000000000000008152600401611cb890612e4d565b60405180910390fd5b80600760008481526020019081526020016000209080519060200190611ce8929190611e97565b505050565b6000611d0e8473ffffffffffffffffffffffffffffffffffffffff16611e84565b15611e77578373ffffffffffffffffffffffffffffffffffffffff1663150b7a02611d3761161c565b8786866040518563ffffffff1660e01b8152600401611d599493929190612c22565b602060405180830381600087803b158015611d7357600080fd5b505af1925050508015611da457506040513d601f19601f82011682018060405250810190611da19190612258565b60015b611e27573d8060008114611dd4576040519150601f19603f3d011682016040523d82523d6000602084013e611dd9565b606091505b50600081511415611e1f576040517f08c379a0000000000000000000000000000000000000000000000000000000008152600401611e1690612ccd565b60405180910390fd5b805181602001fd5b63150b7a0260e01b7bffffffffffffffffffffffffffffffffffffffffffffffffffffffff1916817bffffffffffffffffffffffffffffffffffffffffffffffffffffffff191614915050611e7c565b600190505b949350505050565b600080823b905060008111915050919050565b828054611ea3906131ed565b90600052602060002090601f016020900481019282611ec55760008555611f0c565b82601f10611ede57805160ff1916838001178555611f0c565b82800160010185558215611f0c579182015b82811115611f0b578251825591602001919060010190611ef0565b5b509050611f199190611f1d565b5090565b5b80821115611f36576000816000905550600101611f1e565b5090565b6000611f4d611f4884612f9a565b612f69565b905082815260208101848484011115611f6557600080fd5b611f708482856131ab565b509392505050565b6000611f8b611f8684612fca565b612f69565b905082815260208101848484011115611fa357600080fd5b611fae8482856131ab565b509392505050565b600081359050611fc581613310565b92915050565b600081359050611fda81613327565b92915050565b600081359050611fef8161333e565b92915050565b6000815190506120048161333e565b92915050565b600082601f83011261201b57600080fd5b813561202b848260208601611f3a565b91505092915050565b600082601f83011261204557600080fd5b8135612055848260208601611f78565b91505092915050565b60008135905061206d81613355565b92915050565b6000813590506120828161336c565b92915050565b60006020828403121561209a57600080fd5b60006120a884828501611fb6565b91505092915050565b600080604083850312156120c457600080fd5b60006120d285828601611fb6565b92505060206120e385828601611fb6565b9150509250929050565b60008060006060848603121561210257600080fd5b600061211086828701611fb6565b935050602061212186828701611fb6565b92505060406121328682870161205e565b9150509250925092565b6000806000806080858703121561215257600080fd5b600061216087828801611fb6565b945050602061217187828801611fb6565b93505060406121828782880161205e565b925050606085013567ffffffffffffffff81111561219f57600080fd5b6121ab8782880161200a565b91505092959194509250565b600080604083850312156121ca57600080fd5b60006121d885828601611fb6565b92505060206121e985828601611fcb565b9150509250929050565b6000806040838503121561220657600080fd5b600061221485828601611fb6565b92505060206122258582860161205e565b9150509250929050565b60006020828403121561224157600080fd5b600061224f84828501611fe0565b91505092915050565b60006020828403121561226a57600080fd5b600061227884828501611ff5565b91505092915050565b60008060006060848603121561229657600080fd5b600084013567ffffffffffffffff8111156122b057600080fd5b6122bc86828701612034565b93505060206122cd86828701612073565b925050604084013567ffffffffffffffff8111156122ea57600080fd5b6122f686828701612034565b9150509250925092565b60006020828403121561231257600080fd5b60006123208482850161205e565b91505092915050565b60006123358383612af8565b905092915050565b61234681613123565b82525050565b61235581613123565b82525050565b61236481613111565b82525050565b60006123758261300a565b61237f8185613038565b93508360208202850161239185612ffa565b8060005b858110156123cd57848403895281516123ae8582612329565b94506123b98361302b565b925060208a01995050600181019050612395565b50829750879550505050505092915050565b6123e881613135565b82525050565b60006123f982613015565b6124038185613049565b93506124138185602086016131ba565b61241c816132ff565b840191505092915050565b600061243282613020565b61243c818561305a565b935061244c8185602086016131ba565b612455816132ff565b840191505092915050565b600061246b82613020565b612475818561306b565b93506124858185602086016131ba565b61248e816132ff565b840191505092915050565b60006124a482613020565b6124ae818561307c565b93506124be8185602086016131ba565b80840191505092915050565b60006124d760328361306b565b91507f4552433732313a207472616e7366657220746f206e6f6e20455243373231526560008301527f63656976657220696d706c656d656e74657200000000000000000000000000006020830152604082019050919050565b600061253d601c8361306b565b91507f4552433732313a20746f6b656e20616c7265616479206d696e746564000000006000830152602082019050919050565b600061257d601e8361306b565b91507f54686973206c697374696e6720494420646f6573206e6f7420657869737400006000830152602082019050919050565b60006125bd60248361306b565b91507f4552433732313a207472616e7366657220746f20746865207a65726f2061646460008301527f72657373000000000000000000000000000000000000000000000000000000006020830152604082019050919050565b600061262360198361306b565b91507f4552433732313a20617070726f766520746f2063616c6c6572000000000000006000830152602082019050919050565b6000612663602c8361306b565b91507f4552433732313a206f70657261746f7220717565727920666f72206e6f6e657860008301527f697374656e7420746f6b656e00000000000000000000000000000000000000006020830152604082019050919050565b60006126c960388361306b565b91507f4552433732313a20617070726f76652063616c6c6572206973206e6f74206f7760008301527f6e6572206e6f7220617070726f76656420666f7220616c6c00000000000000006020830152604082019050919050565b600061272f602a8361306b565b91507f4552433732313a2062616c616e636520717565727920666f7220746865207a6560008301527f726f2061646472657373000000000000000000000000000000000000000000006020830152604082019050919050565b600061279560298361306b565b91507f4552433732313a206f776e657220717565727920666f72206e6f6e657869737460008301527f656e7420746f6b656e00000000000000000000000000000000000000000000006020830152604082019050919050565b60006127fb60218361306b565b91507f5061696420696e636f727265637420616d6f756e7420666f72206c697374696e60008301527f67000000000000000000000000000000000000000000000000000000000000006020830152604082019050919050565b600061286160208361306b565b91507f4552433732313a206d696e7420746f20746865207a65726f20616464726573736000830152602082019050919050565b60006128a1602c8361306b565b91507f4552433732313a20617070726f76656420717565727920666f72206e6f6e657860008301527f697374656e7420746f6b656e00000000000000000000000000000000000000006020830152604082019050919050565b6000612907602c8361306b565b91507f4552433732314d657461646174613a2055524920736574206f66206e6f6e657860008301527f697374656e7420746f6b656e00000000000000000000000000000000000000006020830152604082019050919050565b600061296d60298361306b565b91507f4552433732313a207472616e73666572206f6620746f6b656e2074686174206960008301527f73206e6f74206f776e00000000000000000000000000000000000000000000006020830152604082019050919050565b60006129d3602f8361306b565b91507f4552433732314d657461646174613a2055524920717565727920666f72206e6f60008301527f6e6578697374656e7420746f6b656e00000000000000000000000000000000006020830152604082019050919050565b6000612a3960218361306b565b91507f4552433732313a20617070726f76616c20746f2063757272656e74206f776e6560008301527f72000000000000000000000000000000000000000000000000000000000000006020830152604082019050919050565b6000612a9f60318361306b565b91507f4552433732313a207472616e736665722063616c6c6572206973206e6f74206f60008301527f776e6572206e6f7220617070726f7665640000000000000000000000000000006020830152604082019050919050565b600060a083016000830151612b106000860182612b75565b5060208301518482036020860152612b288282612427565b9150506040830151612b3d6040860182612baa565b5060608301518482036060860152612b558282612427565b9150506080830151612b6a608086018261233d565b508091505092915050565b612b7e8161318d565b82525050565b612b8d8161318d565b82525050565b612ba4612b9f8261318d565b613268565b82525050565b612bb381613197565b82525050565b612bc281613197565b82525050565b6000612bd48284612499565b915081905092915050565b6000612beb8285612499565b9150612bf78284612b93565b6020820191508190509392505050565b6000602082019050612c1c600083018461235b565b92915050565b6000608082019050612c37600083018761235b565b612c44602083018661235b565b612c516040830185612b84565b8181036060830152612c6381846123ee565b905095945050505050565b60006020820190508181036000830152612c88818461236a565b905092915050565b6000602082019050612ca560008301846123df565b92915050565b60006020820190508181036000830152612cc58184612460565b905092915050565b60006020820190508181036000830152612ce6816124ca565b9050919050565b60006020820190508181036000830152612d0681612530565b9050919050565b60006020820190508181036000830152612d2681612570565b9050919050565b60006020820190508181036000830152612d46816125b0565b9050919050565b60006020820190508181036000830152612d6681612616565b9050919050565b60006020820190508181036000830152612d8681612656565b9050919050565b60006020820190508181036000830152612da6816126bc565b9050919050565b60006020820190508181036000830152612dc681612722565b9050919050565b60006020820190508181036000830152612de681612788565b9050919050565b60006020820190508181036000830152612e06816127ee565b9050919050565b60006020820190508181036000830152612e2681612854565b9050919050565b60006020820190508181036000830152612e4681612894565b9050919050565b60006020820190508181036000830152612e66816128fa565b9050919050565b60006020820190508181036000830152612e8681612960565b9050919050565b60006020820190508181036000830152612ea6816129c6565b9050919050565b60006020820190508181036000830152612ec681612a2c565b9050919050565b60006020820190508181036000830152612ee681612a92565b9050919050565b6000602082019050612f026000830184612b84565b92915050565b600060a082019050612f1d6000830188612b84565b8181036020830152612f2f8187612460565b9050612f3e6040830186612bb9565b8181036060830152612f508185612460565b9050612f5f608083018461234c565b9695505050505050565b6000604051905081810181811067ffffffffffffffff82111715612f9057612f8f6132d0565b5b8060405250919050565b600067ffffffffffffffff821115612fb557612fb46132d0565b5b601f19601f8301169050602081019050919050565b600067ffffffffffffffff821115612fe557612fe46132d0565b5b601f19601f8301169050602081019050919050565b6000819050602082019050919050565b600081519050919050565b600081519050919050565b600081519050919050565b6000602082019050919050565b600082825260208201905092915050565b600082825260208201905092915050565b600082825260208201905092915050565b600082825260208201905092915050565b600081905092915050565b60006130928261318d565b915061309d8361318d565b9250827fffffffffffffffffffffffffffffffffffffffffffffffffffffffffffffffff038211156130d2576130d1613272565b5b828201905092915050565b60006130e88261318d565b91506130f38361318d565b92508282101561310657613105613272565b5b828203905092915050565b600061311c8261316d565b9050919050565b600061312e8261316d565b9050919050565b60008115159050919050565b60007fffffffff0000000000000000000000000000000000000000000000000000000082169050919050565b600073ffffffffffffffffffffffffffffffffffffffff82169050919050565b6000819050919050565b600067ffffffffffffffff82169050919050565b82818337600083830152505050565b60005b838110156131d85780820151818401526020810190506131bd565b838111156131e7576000848401525b50505050565b6000600282049050600182168061320557607f821691505b60208210811415613219576132186132a1565b5b50919050565b600061322a8261318d565b91507fffffffffffffffffffffffffffffffffffffffffffffffffffffffffffffffff82141561325d5761325c613272565b5b600182019050919050565b6000819050919050565b7f4e487b7100000000000000000000000000000000000000000000000000000000600052601160045260246000fd5b7f4e487b7100000000000000000000000000000000000000000000000000000000600052602260045260246000fd5b7f4e487b7100000000000000000000000000000000000000000000000000000000600052604160045260246000fd5b6000601f19601f8301169050919050565b61331981613111565b811461332457600080fd5b50565b61333081613135565b811461333b57600080fd5b50565b61334781613141565b811461335257600080fd5b50565b61335e8161318d565b811461336957600080fd5b50565b61337581613197565b811461338057600080fd5b5056fea26469706673582212208f488c138871db596862d87134fede566bb4f7ac6df7987247bc2000128759fa64736f6c63430008000033",
  "immutableReferences": {},
  "source": "// SPDX-License-Identifier: UNLICENSED\npragma solidity ^0.8.0;\n\nimport \"./openzepplin/token/ERC721/ERC721.sol\";\n\ncontract Blockbeats is ERC721 {\n    struct Listing {\n        uint256 id;\n        string URI;\n        uint64 price;\n        string title; // might not need if URI metadata\n        address payable creator;\n        // expiry?\n    }\n\n    uint256 numTokens = 0;\n    mapping(uint256 => string) private _tokenURIs;\n    Listing[] public listings;\n\n    constructor() ERC721(\"BBLicenses\", \"BBLC\") {}\n\n    /************ ARTIST **********/\n    function createListing(\n        string memory title,\n        uint64 price,\n        string memory URI\n    ) public {\n        Listing memory newListing =\n            Listing({\n                id: listings.length,\n                URI: URI,\n                price: price,\n                title: title,\n                creator: payable(msg.sender)\n            });\n\n        listings.push(newListing);\n    }\n\n    /*****************************/\n\n    /******** CUSTOMERS **********/\n    function viewListings() public view returns (Listing[] memory) {\n        return (listings);\n    }\n\n    function buyListing(uint256 id) public payable {\n        require(listings.length > id, \"This listing ID does not exist\");\n        uint256 price = listings[id].price;\n\n        require(msg.value == price, \"Paid incorrect amount for listing\");\n\n        listings[id].creator.transfer(msg.value); // is transfer safe?\n\n        mint(listings[id].URI);\n    }\n\n    /****************************/\n\n    /***** ERC721 extensions ****/\n\n    function mint(string memory tokenURI_) private {\n        _mint(msg.sender, numTokens);\n        _setTokenURI(numTokens, tokenURI_);\n        numTokens++;\n    }\n\n    function _setTokenURI(uint256 tokenId, string memory _tokenURI)\n        internal\n        virtual\n    {\n        require(\n            _exists(tokenId),\n            \"ERC721Metadata: URI set of nonexistent token\"\n        );\n        _tokenURIs[tokenId] = _tokenURI;\n    }\n\n    function tokenURI(uint256 tokenId)\n        public\n        view\n        virtual\n        override\n        returns (string memory)\n    {\n        require(\n            _exists(tokenId),\n            \"ERC721Metadata: URI query for nonexistent token\"\n        );\n\n        string memory _tokenURI = _tokenURIs[tokenId];\n        string memory base = \"unset-base\";\n\n        // If there is no base URI, return the token URI.\n        if (bytes(base).length == 0) {\n            return _tokenURI;\n        }\n        // If both are set, concatenate the baseURI and tokenURI (via abi.encodePacked).\n        if (bytes(_tokenURI).length > 0) {\n            return string(abi.encodePacked(_tokenURI));\n        }\n        // If there is a baseURI but no tokenURI, concatenate the tokenID to the baseURI.\n        return string(abi.encodePacked(base, tokenId));\n    }\n    /****************************/\n}\n",
  "sourcePath": "/Users/gmulhearne/Documents/uni/COMS4507/project/blockbeats/contracts/Blockbeats.sol",
  "compiler": {
    "name": "solc",
    "version": "0.8.0+commit.c7dfd78e.Emscripten.clang"
  },
  "schemaVersion": "3.3.4",
  "updatedAt": "2021-04-14T11:05:36.864Z",
  "networkType": "ethereum",
  "devdoc": {
    "kind": "dev",
    "methods": {
      "approve(address,uint256)": {
        "details": "See {IERC721-approve}."
      },
      "balanceOf(address)": {
        "details": "See {IERC721-balanceOf}."
      },
      "getApproved(uint256)": {
        "details": "See {IERC721-getApproved}."
      },
      "isApprovedForAll(address,address)": {
        "details": "See {IERC721-isApprovedForAll}."
      },
      "name()": {
        "details": "See {IERC721Metadata-name}."
      },
      "ownerOf(uint256)": {
        "details": "See {IERC721-ownerOf}."
      },
      "safeTransferFrom(address,address,uint256)": {
        "details": "See {IERC721-safeTransferFrom}."
      },
      "safeTransferFrom(address,address,uint256,bytes)": {
        "details": "See {IERC721-safeTransferFrom}."
      },
      "setApprovalForAll(address,bool)": {
        "details": "See {IERC721-setApprovalForAll}."
      },
      "supportsInterface(bytes4)": {
        "details": "See {IERC165-supportsInterface}."
      },
      "symbol()": {
        "details": "See {IERC721Metadata-symbol}."
      },
      "tokenURI(uint256)": {
        "details": "See {IERC721Metadata-tokenURI}."
      },
      "transferFrom(address,address,uint256)": {
        "details": "See {IERC721-transferFrom}."
      }
    },
    "version": 1
  },
  "userdoc": {
    "kind": "user",
    "methods": {},
    "version": 1
  }
}